20230530-09:12:41.000000000 : 8=FIX.4.2|9=117|35=A|34=1|49=SacombankFDC|52=20230530-09:12:41.000|56=CQG_Gateway|50=TestFIXSessionPersist|96=pass|98=0|108=60|141=Y|10=017|
20230530-09:12:42.000000000 : 8=FIX.4.2|9=140|35=A|49=CQG_Gateway|56=SacombankFDC|34=1|57=TestFIXSessionPersist|52=20230530-09:12:41.589|20173=20230530-09:12:41.589120|108=60|141=Y|98=0|10=201|
